:100000000C9434000C9449000C9449000C94490061
:100010000C9449000C9449000C9449000C9449003C
:100020000C9449000C9449000C9449000C9449002C
:100030000C9449000C9449000C9449000C9449001C
:100040000C9449000C9449000C9449000C9449000C
:100050000C9449000C9449000C9449000C944900FC
:100060000C9449000C94490011241FBECFEFD8E036
:10007000DEBFCDBF11E0A0E0B1E0E8E0F1E002C0FA
:1000800005900D92A630B107D9F70E9452000C944A
:1000900082000C9400009091C00095FFFCCF8093EB
:1000A000C60008951092C50087E68093C40088E1D9
:1000B0008093C10086E08093C200579A8BB180582C
:1000C0008BB989E30E944B0000E011E0C0E0F80129
:1000D00081918F010E944B008C2F0E944B00CF5FBB
:1000E000C630A9F78DE00E944B008AE00E944B00C9
:1000F000FFEF23ED80E3F15020408040E1F700C0A6
:080100000000DCCFF894FFCFF2
:06010800506177656C00F8
:00000001FF
