:100000000C9434000C9449000C9449000C94490061
:100010000C9449000C9449000C9449000C9449003C
:100020000C9449000C9449000C9449000C9449002C
:100030000C9449000C9449000C9449000C9449001C
:100040000C9449000C9449000C9449000C9449000C
:100050000C9449000C9449000C9449000C944900FC
:100060000C9449000C94490011241FBECFEFD8E036
:10007000DEBFCDBF11E0A0E0B1E0E2ECF1E002C0F4
:1000800005900D92AA31B107D9F70E9478000C941F
:10009000DF000C94000080FF02C05C9A01C05C98F5
:1000A00081FF02C05D9A01C05D9882FF02C05E9A26
:1000B00001C05E9883FF02C05F9A08955F9808951B
:1000C000CF93C82F299A82958F700E944B00299850
:1000D000299A8C2F0E944B00299887EC90E0019779
:1000E000F1F700C00000CF91089528980C946000AB
:1000F000549A559A569A579A219A209A8FE59AEED1
:100100000197F1F700C0000028982998C3E0299AC8
:1001100083E00E944B0029988FE19EE40197F1F75C
:1001200000C00000C15099F7299A82E00E944B005C
:1001300029988FE99FE00197F1F700C0000088E25D
:100140000E94750088E00E94750081E00E947500A1
:100150008FE39FE10197F1F700C0000086E00E9465
:1001600075008CE00E94750081E00E9475008FE3AD
:100170009FE10197F1F700C0000082E80E9475003E
:10018000C0E0D1E08991882321F0289A0E94600084
:10019000F9CF81EC0E947500CBE0D1E089918823F2
:1001A00021F0289A0E946000F9CF9FEF29E688E1AC
:1001B000915020408040E1F700C00000D5CFF89476
:0201C000FFCF6F
:1001C200504157454C204B524F4C0057445020321F
:0A01D2003031392F32303230000096
:00000001FF
